{
  "_format": "hh-sol-artifact-1",
  "contractName": "MicroLottery",
  "sourceName": "contracts/MicroLottery.sol",
  "abi": [
    {
      "inputs": [
        {
          "internalType": "address",
          "name": "vrfCoordinator",
          "type": "address"
        },
        {
          "internalType": "address",
          "name": "link",
          "type": "address"
        },
        {
          "internalType": "bytes32",
          "name": "keyHash",
          "type": "bytes32"
        },
        {
          "internalType": "uint256",
          "name": "fee",
          "type": "uint256"
        }
      ],
      "stateMutability": "nonpayable",
      "type": "constructor"
    },
    {
      "anonymous": false,
      "inputs": [
        {
          "indexed": true,
          "internalType": "uint256",
          "name": "participationId",
          "type": "uint256"
        }
      ],
      "name": "NewLoss",
      "type": "event"
    },
    {
      "anonymous": false,
      "inputs": [
        {
          "indexed": true,
          "internalType": "uint256",
          "name": "participationId",
          "type": "uint256"
        }
      ],
      "name": "NewParticipation",
      "type": "event"
    },
    {
      "anonymous": false,
      "inputs": [
        {
          "indexed": true,
          "internalType": "uint256",
          "name": "participationId",
          "type": "uint256"
        }
      ],
      "name": "NewWin",
      "type": "event"
    },
    {
      "anonymous": false,
      "inputs": [
        {
          "indexed": true,
          "internalType": "address",
          "name": "previousOwner",
          "type": "address"
        },
        {
          "indexed": true,
          "internalType": "address",
          "name": "newOwner",
          "type": "address"
        }
      ],
      "name": "OwnershipTransferred",
      "type": "event"
    },
    {
      "inputs": [],
      "name": "getAllParticipations",
      "outputs": [
        {
          "components": [
            {
              "internalType": "address",
              "name": "participant",
              "type": "address"
            },
            {
              "internalType": "uint256",
              "name": "timestamp",
              "type": "uint256"
            },
            {
              "internalType": "enum MicroLottery.ParticipationState",
              "name": "state",
              "type": "uint8"
            },
            {
              "internalType": "uint256",
              "name": "potBalance",
              "type": "uint256"
            },
            {
              "internalType": "bytes32",
              "name": "vrfRequestId",
              "type": "bytes32"
            },
            {
              "internalType": "uint256",
              "name": "vrfResult",
              "type": "uint256"
            }
          ],
          "internalType": "struct MicroLottery.Participation[]",
          "name": "",
          "type": "tuple[]"
        }
      ],
      "stateMutability": "view",
      "type": "function"
    },
    {
      "inputs": [
        {
          "internalType": "uint256",
          "name": "_id",
          "type": "uint256"
        }
      ],
      "name": "getParticipationById",
      "outputs": [
        {
          "components": [
            {
              "internalType": "address",
              "name": "participant",
              "type": "address"
            },
            {
              "internalType": "uint256",
              "name": "timestamp",
              "type": "uint256"
            },
            {
              "internalType": "enum MicroLottery.ParticipationState",
              "name": "state",
              "type": "uint8"
            },
            {
              "internalType": "uint256",
              "name": "potBalance",
              "type": "uint256"
            },
            {
              "internalType": "bytes32",
              "name": "vrfRequestId",
              "type": "bytes32"
            },
            {
              "internalType": "uint256",
              "name": "vrfResult",
              "type": "uint256"
            }
          ],
          "internalType": "struct MicroLottery.Participation",
          "name": "",
          "type": "tuple"
        }
      ],
      "stateMutability": "view",
      "type": "function"
    },
    {
      "inputs": [],
      "name": "owner",
      "outputs": [
        {
          "internalType": "address",
          "name": "",
          "type": "address"
        }
      ],
      "stateMutability": "view",
      "type": "function"
    },
    {
      "inputs": [],
      "name": "participate",
      "outputs": [],
      "stateMutability": "payable",
      "type": "function"
    },
    {
      "inputs": [],
      "name": "participationCount",
      "outputs": [
        {
          "internalType": "uint256",
          "name": "",
          "type": "uint256"
        }
      ],
      "stateMutability": "view",
      "type": "function"
    },
    {
      "inputs": [
        {
          "internalType": "address",
          "name": "dest",
          "type": "address"
        }
      ],
      "name": "payments",
      "outputs": [
        {
          "internalType": "uint256",
          "name": "",
          "type": "uint256"
        }
      ],
      "stateMutability": "view",
      "type": "function"
    },
    {
      "inputs": [],
      "name": "potBalance",
      "outputs": [
        {
          "internalType": "uint256",
          "name": "",
          "type": "uint256"
        }
      ],
      "stateMutability": "view",
      "type": "function"
    },
    {
      "inputs": [],
      "name": "rateLimit",
      "outputs": [
        {
          "internalType": "uint256",
          "name": "",
          "type": "uint256"
        }
      ],
      "stateMutability": "view",
      "type": "function"
    },
    {
      "inputs": [
        {
          "internalType": "bytes32",
          "name": "requestId",
          "type": "bytes32"
        },
        {
          "internalType": "uint256",
          "name": "randomness",
          "type": "uint256"
        }
      ],
      "name": "rawFulfillRandomness",
      "outputs": [],
      "stateMutability": "nonpayable",
      "type": "function"
    },
    {
      "inputs": [],
      "name": "renounceOwnership",
      "outputs": [],
      "stateMutability": "nonpayable",
      "type": "function"
    },
    {
      "inputs": [
        {
          "internalType": "uint256",
          "name": "_rateLimit",
          "type": "uint256"
        }
      ],
      "name": "setRateLimit",
      "outputs": [],
      "stateMutability": "nonpayable",
      "type": "function"
    },
    {
      "inputs": [
        {
          "internalType": "uint256",
          "name": "_weiFee",
          "type": "uint256"
        }
      ],
      "name": "setWeiFee",
      "outputs": [],
      "stateMutability": "nonpayable",
      "type": "function"
    },
    {
      "inputs": [
        {
          "internalType": "uint256",
          "name": "_winProbabilityPercentage",
          "type": "uint256"
        }
      ],
      "name": "setWinProbabilityPercentage",
      "outputs": [],
      "stateMutability": "nonpayable",
      "type": "function"
    },
    {
      "inputs": [
        {
          "internalType": "address",
          "name": "newOwner",
          "type": "address"
        }
      ],
      "name": "transferOwnership",
      "outputs": [],
      "stateMutability": "nonpayable",
      "type": "function"
    },
    {
      "inputs": [],
      "name": "weiFee",
      "outputs": [
        {
          "internalType": "uint256",
          "name": "",
          "type": "uint256"
        }
      ],
      "stateMutability": "view",
      "type": "function"
    },
    {
      "inputs": [],
      "name": "winProbabilityPercentage",
      "outputs": [
        {
          "internalType": "uint256",
          "name": "",
          "type": "uint256"
        }
      ],
      "stateMutability": "view",
      "type": "function"
    },
    {
      "inputs": [],
      "name": "withdrawLink",
      "outputs": [],
      "stateMutability": "nonpayable",
      "type": "function"
    },
    {
      "inputs": [
        {
          "internalType": "address payable",
          "name": "payee",
          "type": "address"
        }
      ],
      "name": "withdrawPayments",
      "outputs": [],
      "stateMutability": "nonpayable",
      "type": "function"
    }
  ],
  "bytecode": "0x60e0604052600160025566038d7ea4c6800060075560146008553480156200002657600080fd5b506040516200409d3803806200409d83398181016040528101906200004c919062000309565b83836200006e620000626200014f60201b60201c565b6200015760201b60201c565b6040516200007c906200021b565b604051809103906000f08015801562000099573d6000803e3d6000fd5b5073ffffffffffffffffffffffffffffffffffffffff1660808173ffffffffffffffffffffffffffffffffffffffff16815250508173ffffffffffffffffffffffffffffffffffffffff1660c08173ffffffffffffffffffffffffffffffffffffffff16815250508073ffffffffffffffffffffffffffffffffffffffff1660a08173ffffffffffffffffffffffffffffffffffffffff168152505050508160048190555080600581905550505050506200037b565b600033905090565b60008060009054906101000a900473ffffffffffffffffffffffffffffffffffffffff169050816000806101000a81548173ffffffffffffffffffffffffffffffffffffffff021916908373ffffffffffffffffffffffffffffffffffffffff1602179055508173ffffffffffffffffffffffffffffffffffffffff168173ffffffffffffffffffffffffffffffffffffffff167f8be0079c531659141344cd1fd0a4f28419497f9722a3daafe3b4186f6b6457e060405160405180910390a35050565b610d16806200338783390190565b600080fd5b600073ffffffffffffffffffffffffffffffffffffffff82169050919050565b60006200025b826200022e565b9050919050565b6200026d816200024e565b81146200027957600080fd5b50565b6000815190506200028d8162000262565b92915050565b6000819050919050565b620002a88162000293565b8114620002b457600080fd5b50565b600081519050620002c8816200029d565b92915050565b6000819050919050565b620002e381620002ce565b8114620002ef57600080fd5b50565b6000815190506200030381620002d8565b92915050565b6000806000806080858703121562000326576200032562000229565b5b600062000336878288016200027c565b945050602062000349878288016200027c565b93505060406200035c87828801620002b7565b92505060606200036f87828801620002f2565b91505092959194509250565b60805160a05160c051612fb2620003d560003960008181610a3e0152611c720152600081816108c6015281816109030152818161102b0152611c36015260008181610564015281816112ec0152611ee80152612fb26000f3fe6080604052600436106101095760003560e01c806394985ddd11610095578063c9b92f9311610064578063c9b92f931461030b578063cace2c6314610336578063d11711a214610373578063e2982c211461037d578063f2fde38b146103ba57610109565b806394985ddd14610265578063a8c101c31461028e578063c287184e146102b9578063c4651b13146102e257610109565b806361e08e72116100dc57806361e08e72146101b6578063715018a6146101e15780637d1e6e95146101f85780638da5cb5b146102235780638dc654a21461024e57610109565b8063268513b31461010e57806331b3eb94146101395780634111a1971461016257806353b8b1f51461018d575b600080fd5b34801561011a57600080fd5b506101236103e3565b604051610130919061225a565b60405180910390f35b34801561014557600080fd5b50610160600480360381019061015b91906122bf565b610562565b005b34801561016e57600080fd5b506101776105f0565b60405161018491906122fb565b60405180910390f35b34801561019957600080fd5b506101b460048036038101906101af9190612342565b6105f6565b005b3480156101c257600080fd5b506101cb610707565b6040516101d891906122fb565b60405180910390f35b3480156101ed57600080fd5b506101f661070d565b005b34801561020457600080fd5b5061020d610795565b60405161021a91906122fb565b60405180910390f35b34801561022f57600080fd5b5061023861079b565b604051610245919061237e565b60405180910390f35b34801561025a57600080fd5b506102636107c4565b005b34801561027157600080fd5b5061028c600480360381019061028791906123c5565b610a3c565b005b34801561029a57600080fd5b506102a3610ad8565b6040516102b091906122fb565b60405180910390f35b3480156102c557600080fd5b506102e060048036038101906102db9190612342565b610ade565b005b3480156102ee57600080fd5b5061030960048036038101906103049190612342565b610b64565b005b34801561031757600080fd5b50610320610caf565b60405161032d91906122fb565b60405180910390f35b34801561034257600080fd5b5061035d60048036038101906103589190612342565b610d23565b60405161036a9190612480565b60405180910390f35b61037b610e7f565b005b34801561038957600080fd5b506103a4600480360381019061039f91906124c7565b6112e8565b6040516103b191906122fb565b60405180910390f35b3480156103c657600080fd5b506103e160048036038101906103dc91906124c7565b61138b565b005b60606104236040518060400160405280601b81526020017f676574416c6c50617274696369706174696f6e733a20424547494e0000000000815250611483565b61044c604051806060016040528060238152602001612da46023913961044761151c565b611524565b6009805480602002602001604051908101604052809291908181526020016000905b8282101561055957838290600052602060002090600602016040518060c00160405290816000820160009054906101000a900473ffffffffffffffffffffffffffffffffffffffff1673ffffffffffffffffffffffffffffffffffffffff1673ffffffffffffffffffffffffffffffffffffffff168152602001600182015481526020016002820160009054906101000a900460ff166002811115610516576105156120cc565b5b6002811115610528576105276120cc565b5b815260200160038201548152602001600482015481526020016005820154815250508152602001906001019061046e565b50505050905090565b7f000000000000000000000000000000000000000000000000000000000000000073ffffffffffffffffffffffffffffffffffffffff166351cff8d9826040518263ffffffff1660e01b81526004016105bb9190612503565b600060405180830381600087803b1580156105d557600080fd5b505af11580156105e9573d6000803e3d6000fd5b5050505050565b60065481565b6105fe61151c565b73ffffffffffffffffffffffffffffffffffffffff1661061c61079b565b73ffffffffffffffffffffffffffffffffffffffff1614610672576040517f08c379a00000000000000000000000000000000000000000000000000000000081526004016106699061257b565b60405180910390fd5b6106b06040518060400160405280601f81526020017f77696e50726f626162696c69747950657263656e746167653a20424547494e00815250611483565b6106d9604051806060016040528060278152602001612f34602791396106d461151c565b611524565b6106fd6040518060600160405280603c8152602001612e6e603c91396008546115c0565b8060088190555050565b60025481565b61071561151c565b73ffffffffffffffffffffffffffffffffffffffff1661073361079b565b73ffffffffffffffffffffffffffffffffffffffff1614610789576040517f08c379a00000000000000000000000000000000000000000000000000000000081526004016107809061257b565b60405180910390fd5b610793600061165c565b565b60075481565b60008060009054906101000a900473ffffffffffffffffffffffffffffffffffffffff16905090565b6107cc61151c565b73ffffffffffffffffffffffffffffffffffffffff166107ea61079b565b73ffffffffffffffffffffffffffffffffffffffff1614610840576040517f08c379a00000000000000000000000000000000000000000000000000000000081526004016108379061257b565b60405180910390fd5b61087e6040518060400160405280601381526020017f77697468647261774c696e6b3a20424547494e00000000000000000000000000815250611483565b6108c46040518060400160405280601b81526020017f77697468647261774c696e6b3a205f6d736753656e64657220257300000000008152506108bf61151c565b611524565b7f000000000000000000000000000000000000000000000000000000000000000073ffffffffffffffffffffffffffffffffffffffff1663a9059cbb337f000000000000000000000000000000000000000000000000000000000000000073ffffffffffffffffffffffffffffffffffffffff166370a08231306040518263ffffffff1660e01b815260040161095a919061237e565b602060405180830381865afa158015610977573d6000803e3d6000fd5b505050506040513d601f19601f8201168201806040525081019061099b91906125b0565b6040518363ffffffff1660e01b81526004016109b89291906125dd565b6020604051808303816000875af11580156109d7573d6000803e3d6000fd5b505050506040513d601f19601f820116820180604052508101906109fb919061263e565b610a3a576040517f08c379a0000000000000000000000000000000000000000000000000000000008152600401610a31906126b7565b60405180910390fd5b565b7f000000000000000000000000000000000000000000000000000000000000000073ffffffffffffffffffffffffffffffffffffffff163373ffffffffffffffffffffffffffffffffffffffff1614610aca576040517f08c379a0000000000000000000000000000000000000000000000000000000008152600401610ac190612723565b60405180910390fd5b610ad48282611720565b5050565b60085481565b610ae661151c565b73ffffffffffffffffffffffffffffffffffffffff16610b0461079b565b73ffffffffffffffffffffffffffffffffffffffff1614610b5a576040517f08c379a0000000000000000000000000000000000000000000000000000000008152600401610b519061257b565b60405180910390fd5b8060028190555050565b610b6c61151c565b73ffffffffffffffffffffffffffffffffffffffff16610b8a61079b565b73ffffffffffffffffffffffffffffffffffffffff1614610be0576040517f08c379a0000000000000000000000000000000000000000000000000000000008152600401610bd79061257b565b60405180910390fd5b610c1e6040518060400160405280601081526020017f7365745765694665653a20424547494e00000000000000000000000000000000815250611483565b610c646040518060400160405280601881526020017f7365745765694665653a205f6d736753656e6465722025730000000000000000815250610c5f61151c565b611524565b80600781905550610cac6040518060400160405280601f81526020017f7365745765694665653a20776569466565206368616e67656420746f202573008152506007546115c0565b50565b6000610cef6040518060400160405280601981526020017f70617274696369706174696f6e436f756e743a20424547494e00000000000000815250611483565b610d18604051806060016040528060218152602001612e1f60219139610d1361151c565b611524565b600980549050905090565b610d2b611fe5565b610d696040518060400160405280601b81526020017f67657450617274696369706174696f6e427949643a20424547494e0000000000815250611483565b610d92604051806060016040528060238152602001612d8160239139610d8d61151c565b611524565b60098281548110610da657610da5612743565b5b90600052602060002090600602016040518060c00160405290816000820160009054906101000a900473ffffffffffffffffffffffffffffffffffffffff1673ffffffffffffffffffffffffffffffffffffffff1673ffffffffffffffffffffffffffffffffffffffff168152602001600182015481526020016002820160009054906101000a900460ff166002811115610e4457610e436120cc565b5b6002811115610e5657610e556120cc565b5b815260200160038201548152602001600482015481526020016005820154815250509050919050565b6000610e8961151c565b9050600160008273ffffffffffffffffffffffffffffffffffffffff1673ffffffffffffffffffffffffffffffffffffffff1681526020019081526020016000205460025443610ed991906127a1565b1015610f1a576040517f08c379a0000000000000000000000000000000000000000000000000000000008152600401610f1190612821565b60405180910390fd5b43600160008373ffffffffffffffffffffffffffffffffffffffff1673ffffffffffffffffffffffffffffffffffffffff16815260200190815260200160002081905550610f9c6040518060400160405280601281526020017f70617274696369706174653a20424547494e0000000000000000000000000000815250611483565b610fe26040518060400160405280601a81526020017f70617274696369706174653a205f6d736753656e646572202573000000000000815250610fdd61151c565b611524565b6007543414611026576040517f08c379a000000000000000000000000000000000000000000000000000000000815260040161101d9061288d565b60405180910390fd5b6005547f000000000000000000000000000000000000000000000000000000000000000073ffffffffffffffffffffffffffffffffffffffff166370a08231306040518263ffffffff1660e01b8152600401611082919061237e565b602060405180830381865afa15801561109f573d6000803e3d6000fd5b505050506040513d601f19601f820116820180604052508101906110c391906125b0565b1015611104576040517f08c379a00000000000000000000000000000000000000000000000000000000081526004016110fb906128f9565b60405180910390fd5b34600660008282546111169190612919565b925050819055506111426040518060600160405280602d8152602001612dc7602d913934600654611b93565b6000611152600454600554611c32565b905060096040518060c001604052803373ffffffffffffffffffffffffffffffffffffffff16815260200142815260200160006002811115611197576111966120cc565b5b815260200160065481526020018381526020016000815250908060018154018082558091505060019003906000526020600020906006020160009091909190915060008201518160000160006101000a81548173ffffffffffffffffffffffffffffffffffffffff021916908373ffffffffffffffffffffffffffffffffffffffff1602179055506020820151816001015560408201518160020160006101000a81548160ff02191690836002811115611254576112536120cc565b5b0217905550606082015181600301556080820151816004015560a0820151816005015550506001611283610caf565b61128d91906127a1565b600a600083815260200190815260200160002081905550600a6000828152602001908152602001600020547fcfd476bf1b42b23de864a06cdbf52f563954a745ec70a3bfca6f5f058fd4d63460405160405180910390a25050565b60007f000000000000000000000000000000000000000000000000000000000000000073ffffffffffffffffffffffffffffffffffffffff1663e3a9db1a836040518263ffffffff1660e01b8152600401611343919061237e565b602060405180830381865afa158015611360573d6000803e3d6000fd5b505050506040513d601f19601f8201168201806040525081019061138491906125b0565b9050919050565b61139361151c565b73ffffffffffffffffffffffffffffffffffffffff166113b161079b565b73ffffffffffffffffffffffffffffffffffffffff1614611407576040517f08c379a00000000000000000000000000000000000000000000000000000000081526004016113fe9061257b565b60405180910390fd5b600073ffffffffffffffffffffffffffffffffffffffff168173ffffffffffffffffffffffffffffffffffffffff161415611477576040517f08c379a000000000000000000000000000000000000000000000000000000000815260040161146e906129e1565b60405180910390fd5b6114808161165c565b50565b611519816040516024016114979190612a89565b6040516020818303038152906040527f41304fac000000000000000000000000000000000000000000000000000000007bffffffffffffffffffffffffffffffffffffffffffffffffffffffff19166020820180517bffffffffffffffffffffffffffffffffffffffffffffffffffffffff8381831617835250505050611d85565b50565b600033905090565b6115bc828260405160240161153a929190612aab565b6040516020818303038152906040527f319af333000000000000000000000000000000000000000000000000000000007bffffffffffffffffffffffffffffffffffffffffffffffffffffffff19166020820180517bffffffffffffffffffffffffffffffffffffffffffffffffffffffff8381831617835250505050611d85565b5050565b61165882826040516024016115d6929190612adb565b6040516020818303038152906040527f9710a9d0000000000000000000000000000000000000000000000000000000007bffffffffffffffffffffffffffffffffffffffffffffffffffffffff19166020820180517bffffffffffffffffffffffffffffffffffffffffffffffffffffffff8381831617835250505050611d85565b5050565b60008060009054906101000a900473ffffffffffffffffffffffffffffffffffffffff169050816000806101000a81548173ffffffffffffffffffffffffffffffffffffffff021916908373ffffffffffffffffffffffffffffffffffffffff1602179055508173ffffffffffffffffffffffffffffffffffffffff168173ffffffffffffffffffffffffffffffffffffffff167f8be0079c531659141344cd1fd0a4f28419497f9722a3daafe3b4186f6b6457e060405160405180910390a35050565b61175e6040518060400160405280601881526020017f66756c66696c6c52616e646f6d6e6573733a20424547494e0000000000000000815250611483565b6117a46040518060400160405280602081526020017f66756c66696c6c52616e646f6d6e6573733a205f6d736753656e64657220257381525061179f61151c565b611524565b6117e26040518060400160405280601d81526020017f66756c66696c6c52616e646f6d6e6573733a2072657175657374496420000000815250611483565b6117eb82611dae565b61180d604051806060016040528060218152602001612f1360219139826115c0565b806009600a6000858152602001908152602001600020548154811061183557611834612743565b5b90600052602060002090600602016005018190555060006064826118599190612b3a565b905061187d604051806060016040528060228152602001612f5b60229139826115c0565b6008548111611ab7576118bb604051806060016040528060348152602001612eaa60349139600a6000868152602001908152602001600020546115c0565b60016009600a600086815260200190815260200160002054815481106118e4576118e3612743565b5b906000526020600020906006020160020160006101000a81548160ff02191690836002811115611917576119166120cc565b5b02179055506119996040518060600160405280602e8152602001612e40602e91396006546009600a6000888152602001908152602001600020548154811061196257611961612743565b5b906000526020600020906006020160000160009054906101000a900473ffffffffffffffffffffffffffffffffffffffff16611e47565b6119fd6009600a600086815260200190815260200160002054815481106119c3576119c2612743565b5b906000526020600020906006020160000160009054906101000a900473ffffffffffffffffffffffffffffffffffffffff16600654611ee6565b60006009600a60008681526020019081526020016000205481548110611a2657611a25612743565b5b906000526020600020906006020160030154600654611a4591906127a1565b9050611a696040518060600160405280602b8152602001612df4602b9139826115c0565b80600681905550600a6000858152602001908152602001600020547fde9e5a485d4b9a88f988c7bc65b0180d560b308658b1611f4ac459da3489af0060405160405180910390a25050611b8f565b611aec604051806060016040528060358152602001612ede60359139600a6000868152602001908152602001600020546115c0565b60026009600a60008681526020019081526020016000205481548110611b1557611b14612743565b5b906000526020600020906006020160020160006101000a81548160ff02191690836002811115611b4857611b476120cc565b5b0217905550600a6000848152602001908152602001600020547fe5425206dcaa64f101854a0acb4e7213200d82dfecece455e9db63cbe2ec36ed60405160405180910390a2505b5050565b611c2d838383604051602401611bab93929190612b6b565b6040516020818303038152906040527f969cdd03000000000000000000000000000000000000000000000000000000007bffffffffffffffffffffffffffffffffffffffffffffffffffffffff19166020820180517bffffffffffffffffffffffffffffffffffffffffffffffffffffffff8381831617835250505050611d85565b505050565b60007f000000000000000000000000000000000000000000000000000000000000000073ffffffffffffffffffffffffffffffffffffffff16634000aea07f000000000000000000000000000000000000000000000000000000000000000084866000604051602001611ca6929190612bb8565b6040516020818303038152906040526040518463ffffffff1660e01b8152600401611cd393929190612c36565b6020604051808303816000875af1158015611cf2573d6000803e3d6000fd5b505050506040513d601f19601f82011682018060405250810190611d16919061263e565b506000611d39846000306003600089815260200190815260200160002054611f76565b905060016003600086815260200190815260200160002054611d5b9190612919565b6003600086815260200190815260200160002081905550611d7c8482611fb2565b91505092915050565b60008151905060006a636f6e736f6c652e6c6f679050602083016000808483855afa5050505050565b611e4481604051602401611dc29190612c74565b6040516020818303038152906040527f27b7cf85000000000000000000000000000000000000000000000000000000007bffffffffffffffffffffffffffffffffffffffffffffffffffffffff19166020820180517bffffffffffffffffffffffffffffffffffffffffffffffffffffffff8381831617835250505050611d85565b50565b611ee1838383604051602401611e5f93929190612c8f565b6040516020818303038152906040527fe3849f79000000000000000000000000000000000000000000000000000000007bffffffffffffffffffffffffffffffffffffffffffffffffffffffff19166020820180517bffffffffffffffffffffffffffffffffffffffffffffffffffffffff8381831617835250505050611d85565b505050565b7f000000000000000000000000000000000000000000000000000000000000000073ffffffffffffffffffffffffffffffffffffffff1663f340fa0182846040518363ffffffff1660e01b8152600401611f40919061237e565b6000604051808303818588803b158015611f5957600080fd5b505af1158015611f6d573d6000803e3d6000fd5b50505050505050565b600084848484604051602001611f8f9493929190612ccd565b6040516020818303038152906040528051906020012060001c9050949350505050565b60008282604051602001611fc7929190612d54565b60405160208183030381529060405280519060200120905092915050565b6040518060c00160405280600073ffffffffffffffffffffffffffffffffffffffff1681526020016000815260200160006002811115612028576120276120cc565b5b81526020016000815260200160008019168152602001600081525090565b600081519050919050565b600082825260208201905092915050565b6000819050602082019050919050565b600073ffffffffffffffffffffffffffffffffffffffff82169050919050565b600061209d82612072565b9050919050565b6120ad81612092565b82525050565b6000819050919050565b6120c6816120b3565b82525050565b7f4e487b7100000000000000000000000000000000000000000000000000000000600052602160045260246000fd5b6003811061210c5761210b6120cc565b5b50565b600081905061211d826120fb565b919050565b600061212d8261210f565b9050919050565b61213d81612122565b82525050565b6000819050919050565b61215681612143565b82525050565b60c08201600082015161217260008501826120a4565b50602082015161218560208501826120bd565b5060408201516121986040850182612134565b5060608201516121ab60608501826120bd565b5060808201516121be608085018261214d565b5060a08201516121d160a08501826120bd565b50505050565b60006121e3838361215c565b60c08301905092915050565b6000602082019050919050565b600061220782612046565b6122118185612051565b935061221c83612062565b8060005b8381101561224d57815161223488826121d7565b975061223f836121ef565b925050600181019050612220565b5085935050505092915050565b6000602082019050818103600083015261227481846121fc565b905092915050565b600080fd5b600061228c82612072565b9050919050565b61229c81612281565b81146122a757600080fd5b50565b6000813590506122b981612293565b92915050565b6000602082840312156122d5576122d461227c565b5b60006122e3848285016122aa565b91505092915050565b6122f5816120b3565b82525050565b600060208201905061231060008301846122ec565b92915050565b61231f816120b3565b811461232a57600080fd5b50565b60008135905061233c81612316565b92915050565b6000602082840312156123585761235761227c565b5b60006123668482850161232d565b91505092915050565b61237881612092565b82525050565b6000602082019050612393600083018461236f565b92915050565b6123a281612143565b81146123ad57600080fd5b50565b6000813590506123bf81612399565b92915050565b600080604083850312156123dc576123db61227c565b5b60006123ea858286016123b0565b92505060206123fb8582860161232d565b9150509250929050565b60c08201600082015161241b60008501826120a4565b50602082015161242e60208501826120bd565b5060408201516124416040850182612134565b50606082015161245460608501826120bd565b506080820151612467608085018261214d565b5060a082015161247a60a08501826120bd565b50505050565b600060c0820190506124956000830184612405565b92915050565b6124a481612092565b81146124af57600080fd5b50565b6000813590506124c18161249b565b92915050565b6000602082840312156124dd576124dc61227c565b5b60006124eb848285016124b2565b91505092915050565b6124fd81612281565b82525050565b600060208201905061251860008301846124f4565b92915050565b600082825260208201905092915050565b7f4f776e61626c653a2063616c6c6572206973206e6f7420746865206f776e6572600082015250565b600061256560208361251e565b91506125708261252f565b602082019050919050565b6000602082019050818103600083015261259481612558565b9050919050565b6000815190506125aa81612316565b92915050565b6000602082840312156125c6576125c561227c565b5b60006125d48482850161259b565b91505092915050565b60006040820190506125f2600083018561236f565b6125ff60208301846122ec565b9392505050565b60008115159050919050565b61261b81612606565b811461262657600080fd5b50565b60008151905061263881612612565b92915050565b6000602082840312156126545761265361227c565b5b600061266284828501612629565b91505092915050565b7f556e61626c6520746f207472616e736665720000000000000000000000000000600082015250565b60006126a160128361251e565b91506126ac8261266b565b602082019050919050565b600060208201905081810360008301526126d081612694565b9050919050565b7f4f6e6c7920565246436f6f7264696e61746f722063616e2066756c66696c6c00600082015250565b600061270d601f8361251e565b9150612718826126d7565b602082019050919050565b6000602082019050818103600083015261273c81612700565b9050919050565b7f4e487b7100000000000000000000000000000000000000000000000000000000600052603260045260246000fd5b7f4e487b7100000000000000000000000000000000000000000000000000000000600052601160045260246000fd5b60006127ac826120b3565b91506127b7836120b3565b9250828210156127ca576127c9612772565b5b828203905092915050565b7f52617465204c696d697465642e204d7573742077616974000000000000000000600082015250565b600061280b60178361251e565b9150612816826127d5565b602082019050919050565b6000602082019050818103600083015261283a816127fe565b9050919050565b7f4d75737420706179207468652077656946656500000000000000000000000000600082015250565b600061287760138361251e565b915061288282612841565b602082019050919050565b600060208201905081810360008301526128a68161286a565b9050919050565b7f4e6f7420656e6f756768204c494e4b202d2066696c6c20636f6e747261637400600082015250565b60006128e3601f8361251e565b91506128ee826128ad565b602082019050919050565b60006020820190508181036000830152612912816128d6565b9050919050565b6000612924826120b3565b915061292f836120b3565b9250827fffffffffffffffffffffffffffffffffffffffffffffffffffffffffffffffff0382111561296457612963612772565b5b828201905092915050565b7f4f776e61626c653a206e6577206f776e657220697320746865207a65726f206160008201527f6464726573730000000000000000000000000000000000000000000000000000602082015250565b60006129cb60268361251e565b91506129d68261296f565b604082019050919050565b600060208201905081810360008301526129fa816129be565b9050919050565b600081519050919050565b60005b83811015612a2a578082015181840152602081019050612a0f565b83811115612a39576000848401525b50505050565b6000601f19601f8301169050919050565b6000612a5b82612a01565b612a65818561251e565b9350612a75818560208601612a0c565b612a7e81612a3f565b840191505092915050565b60006020820190508181036000830152612aa38184612a50565b905092915050565b60006040820190508181036000830152612ac58185612a50565b9050612ad4602083018461236f565b9392505050565b60006040820190508181036000830152612af58185612a50565b9050612b0460208301846122ec565b9392505050565b7f4e487b7100000000000000000000000000000000000000000000000000000000600052601260045260246000fd5b6000612b45826120b3565b9150612b50836120b3565b925082612b6057612b5f612b0b565b5b828206905092915050565b60006060820190508181036000830152612b858186612a50565b9050612b9460208301856122ec565b612ba160408301846122ec565b949350505050565b612bb281612143565b82525050565b6000604082019050612bcd6000830185612ba9565b612bda60208301846122ec565b9392505050565b600081519050919050565b600082825260208201905092915050565b6000612c0882612be1565b612c128185612bec565b9350612c22818560208601612a0c565b612c2b81612a3f565b840191505092915050565b6000606082019050612c4b600083018661236f565b612c5860208301856122ec565b8181036040830152612c6a8184612bfd565b9050949350505050565b6000602082019050612c896000830184612ba9565b92915050565b60006060820190508181036000830152612ca98186612a50565b9050612cb860208301856122ec565b612cc5604083018461236f565b949350505050565b6000608082019050612ce26000830187612ba9565b612cef60208301866122ec565b612cfc604083018561236f565b612d0960608301846122ec565b95945050505050565b6000819050919050565b612d2d612d2882612143565b612d12565b82525050565b6000819050919050565b612d4e612d49826120b3565b612d33565b82525050565b6000612d608285612d1c565b602082019150612d708284612d3d565b602082019150819050939250505056fe67657450617274696369706174696f6e427949643a205f6d736753656e646572202573676574416c6c50617274696369706174696f6e733a205f6d736753656e64657220257370617274696369706174653a20257320616464656420746f20706f7442616c616e63652e20546f74616c20257366756c66696c6c52616e646f6d6e6573733a20736574206e657720706f7442616c616e636520746f20257370617274696369706174696f6e436f756e743a205f6d736753656e64657220257366756c66696c6c52616e646f6d6e6573733a2073656e6420706f7442616c616e6365206f6620257320746f20257377696e50726f626162696c69747950657263656e746167653a207365742077696e50726f626162696c69747950657263656e7461676520746f20257366756c66696c6c52616e646f6d6e6573733a207365742070617274696369706174696f6e2025732073746174652061732057494e66756c66696c6c52616e646f6d6e6573733a207365742070617274696369706174696f6e202573207374617465206173204c4f535366756c66696c6c52616e646f6d6e6573733a2072616e646f6d6e6573733a20257377696e50726f626162696c69747950657263656e746167653a205f6d736753656e64657220257366756c66696c6c52616e646f6d6e6573733a2072616e646f6d526573756c74202573a2646970667358221220f214d07c79fd3539f05cf62c8c443a7d3f873db1fa0fbaa5b3a3fd10d1a1cccc64736f6c634300080b0033608060405234801561001057600080fd5b5061002d61002261003260201b60201c565b61003a60201b60201c565b6100fe565b600033905090565b60008060009054906101000a900473ffffffffffffffffffffffffffffffffffffffff169050816000806101000a81548173ffffffffffffffffffffffffffffffffffffffff021916908373ffffffffffffffffffffffffffffffffffffffff1602179055508173ffffffffffffffffffffffffffffffffffffffff168173ffffffffffffffffffffffffffffffffffffffff167f8be0079c531659141344cd1fd0a4f28419497f9722a3daafe3b4186f6b6457e060405160405180910390a35050565b610c098061010d6000396000f3fe6080604052600436106100555760003560e01c806351cff8d91461005a578063715018a6146100835780638da5cb5b1461009a578063e3a9db1a146100c5578063f2fde38b14610102578063f340fa011461012b575b600080fd5b34801561006657600080fd5b50610081600480360381019061007c9190610805565b610147565b005b34801561008f57600080fd5b506100986102c7565b005b3480156100a657600080fd5b506100af61034f565b6040516100bc9190610853565b60405180910390f35b3480156100d157600080fd5b506100ec60048036038101906100e7919061089a565b610378565b6040516100f991906108e0565b60405180910390f35b34801561010e57600080fd5b506101296004803603810190610124919061089a565b6103c1565b005b6101456004803603810190610140919061089a565b6104b9565b005b61014f6105e2565b73ffffffffffffffffffffffffffffffffffffffff1661016d61034f565b73ffffffffffffffffffffffffffffffffffffffff16146101c3576040517f08c379a00000000000000000000000000000000000000000000000000000000081526004016101ba90610958565b60405180910390fd5b6000600160008373ffffffffffffffffffffffffffffffffffffffff1673ffffffffffffffffffffffffffffffffffffffff1681526020019081526020016000205490506000600160008473ffffffffffffffffffffffffffffffffffffffff1673ffffffffffffffffffffffffffffffffffffffff16815260200190815260200160002081905550610275818373ffffffffffffffffffffffffffffffffffffffff166105ea90919063ffffffff16565b8173ffffffffffffffffffffffffffffffffffffffff167f7084f5476618d8e60b11ef0d7d3f06914655adb8793e28ff7f018d4c76d505d5826040516102bb91906108e0565b60405180910390a25050565b6102cf6105e2565b73ffffffffffffffffffffffffffffffffffffffff166102ed61034f565b73ffffffffffffffffffffffffffffffffffffffff1614610343576040517f08c379a000000000000000000000000000000000000000000000000000000000815260040161033a90610958565b60405180910390fd5b61034d60006106de565b565b60008060009054906101000a900473ffffffffffffffffffffffffffffffffffffffff16905090565b6000600160008373ffffffffffffffffffffffffffffffffffffffff1673ffffffffffffffffffffffffffffffffffffffff168152602001908152602001600020549050919050565b6103c96105e2565b73ffffffffffffffffffffffffffffffffffffffff166103e761034f565b73ffffffffffffffffffffffffffffffffffffffff161461043d576040517f08c379a000000000000000000000000000000000000000000000000000000000815260040161043490610958565b60405180910390fd5b600073ffffffffffffffffffffffffffffffffffffffff168173ffffffffffffffffffffffffffffffffffffffff1614156104ad576040517f08c379a00000000000000000000000000000000000000000000000000000000081526004016104a4906109ea565b60405180910390fd5b6104b6816106de565b50565b6104c16105e2565b73ffffffffffffffffffffffffffffffffffffffff166104df61034f565b73ffffffffffffffffffffffffffffffffffffffff1614610535576040517f08c379a000000000000000000000000000000000000000000000000000000000815260040161052c90610958565b60405180910390fd5b600034905080600160008473ffffffffffffffffffffffffffffffffffffffff1673ffffffffffffffffffffffffffffffffffffffff16815260200190815260200160002060008282546105899190610a39565b925050819055508173ffffffffffffffffffffffffffffffffffffffff167f2da466a7b24304f47e87fa2e1e5a81b9831ce54fec19055ce277ca2f39ba42c4826040516105d691906108e0565b60405180910390a25050565b600033905090565b8047101561062d576040517f08c379a000000000000000000000000000000000000000000000000000000000815260040161062490610adb565b60405180910390fd5b60008273ffffffffffffffffffffffffffffffffffffffff168260405161065390610b2c565b60006040518083038185875af1925050503d8060008114610690576040519150601f19603f3d011682016040523d82523d6000602084013e610695565b606091505b50509050806106d9576040517f08c379a00000000000000000000000000000000000000000000000000000000081526004016106d090610bb3565b60405180910390fd5b505050565b60008060009054906101000a900473ffffffffffffffffffffffffffffffffffffffff169050816000806101000a81548173ffffffffffffffffffffffffffffffffffffffff021916908373ffffffffffffffffffffffffffffffffffffffff1602179055508173ffffffffffffffffffffffffffffffffffffffff168173ffffffffffffffffffffffffffffffffffffffff167f8be0079c531659141344cd1fd0a4f28419497f9722a3daafe3b4186f6b6457e060405160405180910390a35050565b600080fd5b600073ffffffffffffffffffffffffffffffffffffffff82169050919050565b60006107d2826107a7565b9050919050565b6107e2816107c7565b81146107ed57600080fd5b50565b6000813590506107ff816107d9565b92915050565b60006020828403121561081b5761081a6107a2565b5b6000610829848285016107f0565b91505092915050565b600061083d826107a7565b9050919050565b61084d81610832565b82525050565b60006020820190506108686000830184610844565b92915050565b61087781610832565b811461088257600080fd5b50565b6000813590506108948161086e565b92915050565b6000602082840312156108b0576108af6107a2565b5b60006108be84828501610885565b91505092915050565b6000819050919050565b6108da816108c7565b82525050565b60006020820190506108f560008301846108d1565b92915050565b600082825260208201905092915050565b7f4f776e61626c653a2063616c6c6572206973206e6f7420746865206f776e6572600082015250565b60006109426020836108fb565b915061094d8261090c565b602082019050919050565b6000602082019050818103600083015261097181610935565b9050919050565b7f4f776e61626c653a206e6577206f776e657220697320746865207a65726f206160008201527f6464726573730000000000000000000000000000000000000000000000000000602082015250565b60006109d46026836108fb565b91506109df82610978565b604082019050919050565b60006020820190508181036000830152610a03816109c7565b9050919050565b7f4e487b7100000000000000000000000000000000000000000000000000000000600052601160045260246000fd5b6000610a44826108c7565b9150610a4f836108c7565b9250827fffffffffffffffffffffffffffffffffffffffffffffffffffffffffffffffff03821115610a8457610a83610a0a565b5b828201905092915050565b7f416464726573733a20696e73756666696369656e742062616c616e6365000000600082015250565b6000610ac5601d836108fb565b9150610ad082610a8f565b602082019050919050565b60006020820190508181036000830152610af481610ab8565b9050919050565b600081905092915050565b50565b6000610b16600083610afb565b9150610b2182610b06565b600082019050919050565b6000610b3782610b09565b9150819050919050565b7f416464726573733a20756e61626c6520746f2073656e642076616c75652c207260008201527f6563697069656e74206d61792068617665207265766572746564000000000000602082015250565b6000610b9d603a836108fb565b9150610ba882610b41565b604082019050919050565b60006020820190508181036000830152610bcc81610b90565b905091905056fea2646970667358221220ba79d01fb443f0cd1200f9aa14e3f08d2f3dd55b8067ccaa7dad1bbe5500018264736f6c634300080b0033",
  "linkReferences": {},
  "deployedLinkReferences": {}
}